:020000040800F2
:10000000B00600205D0200086502000867020008D3
:1000100000000000000000000000000000000000E0
:10002000000000000000000000000000690200085D
:1000300000000000000000006B020008A92D00086D
:100040006F0200086F0200086F0200086F020008CC
:100050006F0200083D2000086F0200086F020008D0
:100060006F0200086F0200086F0200086F020008AC
:100070006F0200086F0200086F0200086F0200089C
:100080006F0200086F02000800000000C12D000888
:100090006F0200086F0200086F0200086F0200087C
:1000A0006F0200086F0200086F0200087D2F000831
:1000B0006F020008000000006F02000800F002F864
:1000C00000F0BDF80CA030C8083824182D18671EA1
:1000D000A246AB4654465D46AC4201D100F0AFF8B3
:1000E0007E460F3EB6460FCC0126334200D0FB1AA7
:1000F0003343A246AB461847003D0000203D0000B8
:10010000103A02D378C878C1FAD8520701D330C860
:1001100030C101D504680C60704700000023002442
:1001200000250026103A01D378C1FBD8520700D32E
:1001300030C100D50B60704710B56E2902D100F0B8
:100140005FFB10BD702902D100F099FC10BD66293B
:1001500002D103F0F7FB10BD652902D103F0F2FBD9
:1001600010BD672902D103F0EDFB10BD612902D15A
:1001700003F0F0FB10BD03681B0A01D38023194371
:10018000692902D100F006FB10BD642902D100F0FC
:1001900001FB10BD752902D100F0FCFA10BD6F29DA
:1001A00002D100F017FC10BD782902D100F054FCF8
:1001B00010BDE92902D100F0B3FB10BDE42902D142
:1001C00000F0AEFB10BDF52902D100F0A9FB10BD77
:1001D000EF2902D100F00AFC10BDF82902D100F08D
:1001E00049FC10BD0368DB0901D38023194363294F
:1001F00002D101F02CF910BD732902D101F02FF9C1
:1002000010BDE32902D101F039F910BDF32902D163
:1002100001F03CF910BD002010BD1FB501F0CAF976
:1002200004000020002103F01DFA401C6060002043
:10023000002103F001FAE0601FBD10B510BD01F010
:1002400091F91146FFF7E9FF03F02AF901F026FDC5
:1002500003B4FFF7F2FF03BC01F07CFD07488047C1
:1002600007480047FEE7FEE7FEE7FEE7FEE7FEE79A
:1002700004480549054A064B70470000BD2D00089B
:10028000BD000008B0000020B0060020B002002031
:10029000B00200200FB41CB5084B06AA7B44694687
:1002A0000090059800F0C5FA04460020694600F069
:1002B000D3FA20461CBC08BC04B01847B90500009E
:1002C000024670B50A4392072AD11E4DEE0104C8BA
:1002D00008C9541B9443344017D0D0B2D9B2401A45
:1002E0002106014310D190B299B2401A2104014372
:1002F0000AD110021902000A090A401A2102014318
:1003000002D1100E190E401A70BD9A42DFD010BAF9
:1003100019BA884201D9012070BD0020C04370BDC8
:1003200002780B78401C491C002A09D09A4207D158
:1003300002780B78401C491C002A01D09A42EFD069
:10034000D01A70BD01010101002203098B422CD398
:10035000030A8B4211D300239C464EE003460B4315
:100360003CD4002243088B4231D303098B421CD377
:10037000030A8B4201D394463FE0C3098B4201D369
:10038000CB01C01A524183098B4201D38B01C01AA1
:10039000524143098B4201D34B01C01A5241030918
:1003A0008B4201D30B01C01A5241C3088B4201D3C7
:1003B000CB00C01A524183088B4201D38B00C01A74
:1003C000524143088B4201D34B00C01A5241411A9B
:1003D00000D201465241104670475DE0CA0F00D07E
:1003E0004942031000D3404253409C460022030977
:1003F0008B422DD3030A8B4212D38901FC2212BAFD
:10040000030A8B420CD3890192118B4208D38901D4
:1004100092118B4204D389013AD0921100E08909EC
:10042000C3098B4201D3CB01C01A524183098B42CD
:1004300001D38B01C01A524143098B4201D34B01B6
:10044000C01A524103098B4201D30B01C01A524119
:10045000C3088B4201D3CB00C01A524183088B42A0
:1004600001D38B00C01A5241D9D243088B4201D329
:100470004B00C01A5241411A00D201465241104667
:1004800063465B1001D34042002B00D549427047C0
:1004900063465B1000D3404201B50549002802DCE9
:1004A000491C084000E00846C046C04602BD00BFE7
:1004B000FFFFFF7F70477047704700000121C905AB
:1004C0000123411842001B06D3185B0E0AD0C1104D
:1004D0000722D206891840075242D14201D5520064
:1004E00089187047090208D50146002A03D0C10FB8
:1004F000C9070020704710467047420202D0002012
:1005000002497047072109050143F4E70000F87F1D
:10051000F0B5FF252D04C609C209FF2704462E4069
:100520000137CB093E4348402A402B400746002A6A
:100530006BD0002B69D0AA4267D0AB4265D00028AF
:1005400000DA32460125ED0529432C430902200239
:10055000090AD21A4B0C7F24E31A434C000A7C444C
:10056000E35C7D242404121914145B00A218884251
:1005700001D3521C00E0400049420C465C43241168
:100580005C43DB016415E318040A5C43C502200DDB
:100590000C4644436419250A5D432303EC0C0D46C5
:1005A000654300030019EB184C42A34201D35B18CA
:1005B000401CD4052018002B07D05B00C91804D3B9
:1005C000401C002901D1400840003F2189048A4293
:1005D00009D3002A08DC1106090F04D003214907BA
:1005E0004018C00FC007F0BD012241001206891853
:1005F0007F2252069142F6D205214907C84201D511
:100600009010F0BDFF20C005F0BD002F00DA32468B
:100610001648AA4207D2AB4205D21902090E17D0DA
:10062000F80FC007F0BDFF2563002D06AB42F9D8D7
:100630004900A942F6D8AB4201D1A942F2D0A94261
:1006400001D1002101E061004908D0050843F0BD57
:100650001102090EFBD0FF200243D005F0BD0A466F
:100660000146104654E70000023400000000C07F3D
:100670001F22030C02D10F2200041CD0030E01D153
:100680000002083A030F01D10001121F830F01D1AC
:100690008000921E002801DB4000521ED205511836
:1006A000021251181922904004D3491C002801D18C
:1006B0004908490008467047C10FC90700D04042A9
:1006C000012292071143D3E701218907D0E770B5D2
:1006D000044685690068C10601D5302600E0202661
:1006E000C00707D070BD62683046A1689047206A95
:1006F000401C20626D1EF6D570BD70B5044685693C
:100700000078C00707D170BD6268A16820209047BB
:10071000206A401C20626D1EF6D570BD09684A052E
:1007200001D540B27047C905FCD500B270470968D1
:100730004A0501D5C0B27047C905FCD580B27047E3
:1007400070B50C460546012A05D02878800600D5EC
:10075000EA69002302E0012305E05B1C934202D218
:10076000E05C0028F9D1A869E618C01AA861286AD7
:10077000C01828622846FFF7AAFF04E06A682078BC
:10078000A968641C9047B442F8D32846FFF7B5FF28
:1007900070BD0000F7B5002575291068009914A6F2
:1007A00011D0FFF7BBFF002802DA404211A608E093
:1007B000009909688A0701D50FA602E0490704D508
:1007C0000EA6012501E0FFF7B2FF009F00242437A9
:1007D00004E000F080FE30313955641C0028F8D167
:1007E0002B4632462146009800F057FAFEBD000025
:1007F000000000002D0000002B0000002000000081
:1008000011680268006A530501D5087009E0D30534
:1008100001D5088005E0130602D5C21705C100E026
:10082000086001207047000001694A1C02610878D5
:10083000704700B58FB002910021059105490193E1
:100840007944039111460490684600F025F90FB0F1
:1008500000BD0000E5FFFFFF0A681070521C0A602F
:1008600070470000F7B50446154686B02B4878441B
:10087000002703C83E460090019111E007986A46A0
:100880007100415A02A800F005FE411C07D02178F2
:10089000890603D5E269391891420ED83F18761CB3
:1008A0002078800602D5E069B84206DDAE42E5DB7D
:1008B00007987100405A0028E0D1A069C01BA061D0
:1008C0002046FFF704FF154878445A3803C80090C3
:1008D0000020019116E041006A460798415A02A89B
:1008E00000F0D8FD0590401C0AD0002505E06268A4
:1008F00002A8A168405D90476D1C05988542F6D31B
:100900000498401CB0420490E5DB206AC0192062C4
:100910002046FFF7F2FE09B0F0BD000032310000C2
:10092000F7B5D21D0025D20815A6D200F52905CAB3
:1009300011D0002A05DA00214042914111A60A4651
:1009400008E0009909688B0701D50FA602E0490766
:1009500001D50EA601251146009F0024243704E08E
:1009600000F05EF930323A55641C02460A43F7D172
:100970002B4632462146009800F08FF9FEBD00005C
:10098000000000002D0000002B00000020000000EF
:1009900070B504460021243408E05507D2086D0FD5
:1009A000303565545D072A43DB08491C15461D4355
:1009B000F3D10468002310A2250708D520252C4078
:1009C0000C4304D0C46901230CA2641EC46100F06E
:1009D00064F970BD10B5044621461068FFF7A7FE04
:1009E000002302462046FFF7D3FF10BDD21DD108D9
:1009F000C9000CC9CCE70000000000003000000076
:100A0000F8B50F460188090502D5224C7C4402E066
:100A1000204C7C440E3405460021243508E016079E
:100A20001209360FA65D6E541E0732431B09491C7E
:100A300016461E43F3D1224604780023240705D529
:100A4000702F06D0002901D00223113200F025F9C1
:100A5000F8BD01231032F9E770B504460D46214672
:100A60001068FFF764FE0023024629462046FFF780
:100A7000C7FF70BDD21DD308DB000CCBC0E730B47C
:100A8000036820241268234303600823C36130BC39
:100A90000023B5E79C2F0000F3B50446002081B089
:100AA00020622046E1688847002872D0252802D0BD
:100AB0006268A168ABE0594F00267F442046E16898
:100AC00088472028054608DB312D06D278192038C2
:100AD0000078002801D00643F0E7B00701D50420D4
:100AE00086430020E0610746A0612A2D0AD02846EF
:100AF00002F09BFD002827D0B8000019303D00907F
:100B0000856119E00298BA00121902C89161029039
:100B10002046E1688847012F054617D1E069002883
:100B20001FDA202086431CE000980A218069484390
:100B300000994019303888612046E16888470546A9
:100B400002F073FD0028EFD1012F0AD02E2D08D11D
:100B50002046E16888470546202006437F1C022F77
:100B6000C3DBA069002803DA4042A06101200643EC
:100B7000F00701D0102086436C2D0BD0682D09D0D2
:100B80004C2D3CD06A2D38D0742D38D07A2D36D0EB
:100B900016E040E0E1682F4620468847B842054607
:100BA00009D16C2F29D001208002E168064320463C
:100BB0008847054604E06C2F1DD0FF200130064316
:100BC000002D28D028464138192803D80120C0021A
:100BD00006432035204626602946029A1646FFF72E
:100BE000ABFA002810D001280BD0F61DF008C00089
:100BF0000830029055E74020E1E78020D5E700204B
:100C0000D3E7361D02964CE762682846A1689047F4
:100C1000206A401C44E7206AFEBD0000162F000039
:100C20000B4670B5024689078008084319469D089F
:100C3000141AA94125090807054308092C19484138
:100C4000250A01060D43010A2C194141200C0D040F
:100C500028430D0C00194D41002140194D41C00899
:100C600069070843E908840F8D0025438400241890
:100C70004D4124196D41121BAB4107E00925ED439D
:100C80002C11521963410024401C61411C460A2565
:100C90000026551BB441F1D270BDFFB504460D4688
:100CA00081B0243000902168880604D51022E069C4
:100CB0009143216000E00120A84201DD471B00E0D4
:100CC00000270498A1697A191018081AA0612078E1
:100CD000C00602D42046FFF7FAFC002608E003987D
:100CE0006268A168805D9047206A401C761C206283
:100CF00004988642F3DB2078C0060AD52046FFF729
:100D0000E6FC06E06268A16830209047206A401C3B
:100D1000206238467F1E0028F4DC07E000986268F5
:100D2000A168405D9047206A401C206228466D1EE5
:100D30000028F3DC2046FFF7E0FC2078000602D50F
:100D4000022005B0F0BD0120FBE70000FFB50C4616
:100D50001E468FB003CA089009914F007D0D00D147
:100D60006D1E002108460020C0460321099A89050E
:100D70000840002A03DA8200801840080840800DED
:100D800001280A9002DD0020C0430A90089807431A
:100D90000DD0F048F0492818484307141898002847
:100DA0001DD07542291E1DDD0A9842421BE018988D
:100DB000012802D00020302104E00020F24305E0A9
:100DC0002154401CB042FBDB30460022189B00211E
:100DD00021540F998B600A60486013B0F0BDBD1BB1
:100DE0006D1CDFE70A9A002900DA69420BA800F0BF
:100DF00029FC0BAB07CB03AB07C30899099800F09C
:100E00008DFC6B4607C30146D4480918002D00919C
:100E10000BDDD24903980A9A49424018002303A9DE
:100E20000390684600F0EAFE08E003990A9A00235E
:100E3000081803A90390684600F08AFE6B4607C3B2
:100E40000004000C03D00020C043410800E010461D
:100E5000189A002A03D00022009215461EE0751E43
:100E600005D4FFF7DDFE303262556D1EF9D5012243
:100E70000843079602D000227F1C04E02078302827
:100E800001D100227F1E002A069787D01EE0112D77
:100E900007DAFFF7C5FE303262556D1C02460A4381
:100EA000F5D1084303D00098002819D00EE00021A6
:100EB000681E05E0235C625C63542254401E491C9A
:100EC0008142F7DBA81B401E07950690079A1899E8
:100ED0000020A0540F98079B069A81600CC07CE705
:100EE00011260020189059E7D21DF0B50D46044692
:100EF000D10893B0C90003C90C900D9102F05CFBBE
:100F000002460D98C00F01D02D2007E02068810710
:100F100001D52B2002E04007C00F4001032A0F90AB
:100F200001D0072A05DB03462946204600F046FB90
:100F30000EE12078800601D5E76900E00627284603
:100F4000652D04D0662814D0672D69D12DE00020CE
:100F5000112F009001DB112300E07B1C0CAA03A9D8
:100F600010A8FFF7F3FE1199002610987D1C0E9132
:100F700042E001203B460CAAC0070B9001200090E4
:100F800003A910A8FFF7E2FE119D12981099002600
:100F900000280E9501D1781C0D18781B02D446420A
:100FA0007D1C761EE81B00903AE0012F00DA012735
:100FB0000020112F009001DD112300E03B460CAA18
:100FC00003A910A8FFF7C2FE11993D46109800260C
:100FD0000E91217809070BD40E99A94200DA0D462B
:100FE00003A9012D04DD4A19203AD27F302A06D008
:100FF000B84201DA011D04DA012100910FE06D1EF3
:10100000EFE7002802DC86192D1A03E0411CA942F3
:1010100000DD0D46801B401C00900120C0070B9096
:101020002078000705D40098A84202DB0020C043C6
:10103000009069460020C8720B98012102AF033767
:10104000C907884225D0022010902B2011900B98C0
:1010500000280BDA40420B902D20119006E00B98EF
:1010600000F039FA30317F1E0B9039701099481E0C
:1010700000291090F3DC0B980028F0D111987F1E06
:1010800038702088000501D5452000E065207F1ECE
:10109000387001A8C01BC01D0B900F98002800D00D
:1010A000012041190098C01709180B980818A16968
:1010B000081A401EA0612078C00602D42046FFF71F
:1010C00006FB0F98002805D06268A1689047206A47
:1010D000401C20622078C00625D52046FFF7F7FA8D
:1010E00021E0002E07DB0E98B04204DD03A8626801
:1010F000805DA16802E06268A16830209047206AA4
:10110000761C401C20620098401E002800900AD1E6
:1011100000F050FAC06862680168405CA1689047BE
:10112000206A401C206228466D1E0028D9DC07E09A
:1011300062683878A1687F1C9047206A401C206252
:101140000B99481E00290B90F2DC2046FFF7D5FAD8
:10115000032042E601FCFFFF104D0000E1DFFFFF2E
:10116000D21DF0B504460D46D0088DB0C0004668CB
:1011700007683146384602F01FFA0246F00F01D0E8
:101180002D2307E02068810701D52B2302E04007CB
:10119000C00F43016846002B037001D0012000E01E
:1011A0000020032A0A9001D0072A04DB29462046A2
:1011B00000F004FA2DE12078800601D40D2500E02E
:1011C000E5697000400D0D2D01904BDA300D0021C6
:1011D0000B9008460020C046032189050840002ED8
:1011E00005DA82008018C20F1018401008408015E0
:1011F000012801DD0020C043A9000023182906D3DF
:101200009C460A460123183A1B07D34003E00122FB
:101210001205CA4094460C31202902D33A4620399F
:1012200000E032468A40002802DD002A06D119E09B
:10123000002817D10121C9078A4213D319466346F2
:101240007F185E41002806D10120C007824202D1EA
:10125000084687439E430B98310D814202D0019886
:10126000401C01902088000502D57149794402E0B4
:101270006F49794419396B460A9830221A540A98F2
:101280000A7C401C1A54401C0A900198002801DC7A
:10129000302000E031201872019A0120002A02D08B
:1012A000644BD21804E072003A4302D0614A521CE7
:1012B0000192002D02DC2278120703D56A462E2007
:1012C000507202200022864694460CE0320336011A
:1012D000120F6D1E8B5C02AA13546246521C401CF6
:1012E0009446052A01DA002DF0DC002202AE08E067
:1012F0003B0F3F01CB5C521C6D1E3354401C082A2F
:1013000001DA002DF4DC23689A0601D511E0401EB5
:10131000704504DD3218203AD27F302AF7D00028F9
:1013200007DD3218203AD27F2E2A02D11A0700D4C4
:10133000401E002D03DD3E223254401C6D1E497CB0
:1013400031540199401C002906DA2D21471C3154E3
:1013500001984042019003E02B21471C3154019831
:101360007D21C900884206DBFEF7F8FF3030F055DA
:101370007F1C019101E0642808DB01986421FEF7DD
:10138000EDFF3030F0557F1C019101E00A2806DBAB
:1013900001980A21FEF7E2FF3030F0557F1C0198DA
:1013A0000A21FEF7DBFF3031F1550A98A1697F1C55
:1013B0007A191018081AA0612078C00602D42046B5
:1013C000FFF785F9216A6E460A980818206204E042
:1013D00062683078A168761C90470A98401E0A908F
:1013E000401CF5D12078C00602D52046FFF76FF9E2
:1013F00002AE09E03078761C3E280DD06268A16804
:101400009047206A401C20627F1EF3D22046FFF7DF
:1014100074F90DB00320F0BD206A4019206203E08A
:101420006268A168302090476D1EEDD3F8E7000098
:101430008827000001FCFFFF10B54369002B02D094
:10144000C046C04601E0FFF77BF9012010BD1278CD
:10145000014624310A7000224A700122ECE711682B
:101460000022D243E8E710B54369002B02D0C04602
:10147000C04601E0FFF7F6F9012010BD12880146D1
:10148000243182840022C2840122ECE71168002208
:10149000D243E8E7F8B516460C46054600F082F858
:1014A0000368FF200230C05C012807D0FF2C0FD852
:1014B000185D00280CD001202C70F8BDFF33324697
:1014C000214608331868C71828460023B847F8BDD6
:1014D0000020C043F8BD01468008081A0209101810
:1014E000020A1018020C1018C008820012185200CC
:1014F000891A01E0401C0A390A29FBD27047000012
:1015000010B5FF231B0644009C421DD84C009C4292
:101510001AD80346124A0B4307D4401A02D3EFF3FA
:10152000008010BDEFF3008010BD081A03D3EFF365
:101530000080904305E0EFF3008001219043C9074C
:10154000084380F3008810BD0D231B041A4204D009
:101550001146002000F0AAFB10BD00F0BFFB10BD3B
:1015600000000090754600F0C1FBAE4605006946DC
:101570005346C008C000854618B020B5FEF778FE77
:1015800060BCB64600260027C0C5C0C5C0C5C0C5E2
:10159000C0C5C0C5C0C5C0C5403D490849008D464D
:1015A0007047000010B500F005F8001D10BD00BF29
:1015B000B52000000048704730000020F8B51F46F5
:1015C000044601230068DB02032601461840072A6F
:1015D00005DB002801D017A506E017A504E00028C8
:1015E00001D016A500E016A5102081432160A06956
:1015F000C01E002FA06101D0401EA0612046FFF751
:1016000066F8002F09D038466268A1689047206AC2
:10161000401C2062C01C206206E0206AFAE7626873
:101620002878A1686D1C9047761EF8D22046FFF7F7
:1016300064F8F8BD4E414E006E616E00494E4600A2
:10164000696E6600F7B516468AB0334878446C4632
:1016500003467C33C06F5A689B680DC42E4878449B
:10166000763003AC0DC80DC43720C00108183721EF
:101670001B30FEF773FE05460C46803D1B3C02D531
:101680006442012000E000200027099010E0E007FC
:101690000CD00C2020497843794432464C3941180B
:1016A0006846012300F054FA6B4607C364107F1CA0
:1016B000002CECD1184F7F442E3F16E0E80712D0E3
:1016C0002001C0190EC80691089307920068F042E5
:1016D00001D1981908903246012306A903A800F009
:1016E00037FA03AB07C36D10641C002DE6D10998CF
:1016F000002806D032466946012303A800F07EFA8E
:1017000005E001233246694603A800F021FA0A9B4E
:1017100007C30DB0F0BD0000BC230000034640002D
:101720000A4610B5400D0BD00121C9070F24A402B1
:1017300000191C0364082143540D2143D20207E021
:1017400000210120F2E7D40F490021435200401E3E
:101750000029F8DADB0FDB07184310BDFFB50D4693
:10176000144685B04868516801F00EFF0091019061
:10177000A868A16801F008FF02910390A868616859
:1017800001F002FF029A12188242029201D2012055
:1017900000E00020019A0B18D2180028019202D014
:1017A0008A4202D903E08A4201D2012000E00020EF
:1017B0000099081800906868A16801F0E5FE029A97
:1017C00012188242029201D2012000E00020019A08
:1017D0000B18D2180028019202D08A4202D903E0E5
:1017E0008A4201D2012000E00020009908180090F0
:1017F0002868216840004900400849084018FA4913
:10180000471814E001994000C90F0843009001985F
:1018100002994000C90F08430190029803994000C3
:10182000C90F08430290039840007F1E0390009860
:101830000028E7DA0898002801D0EC4E00E00026E6
:10184000B74201DA012000E00020002804902AD0ED
:10185000F71BF806C00E15D0029B2021091A039A27
:101860008B401A430392029A019BC2408B401A4359
:101870000292019A009BC2408B4000991A43019248
:10188000C14000917B110DD06F460320C11A03D5D2
:1018900000218200B95003E08A008100BA587A50D2
:1018A000401EF3D5374603980299002800D0012046
:1018B000014308980291002808460CD0002800D067
:1018C00001200199019A490508430121D20AC90260
:1018D000D202019200E001210E9B0122D207012BCE
:1018E00002D0002B03D013E0002807D120E0904263
:1018F00004D890420CD1019B0B4209D0019B59188E
:10190000019105D10099491C009101D17F1C0092E1
:1019100000280DD0102108460020C0460498002859
:1019200006D00F98002803D0082108460020C046A2
:1019300028682168019B009A4840C10F0598C90793
:1019400039430EC009B0F0BDFFB587B0099A0898B9
:101950000899536892684068896896460022039304
:1019600017469446089A12685300099A5B08126851
:10197000520052089A1A9E4BD4180A9A002A01D093
:10198000352200E0402206920022012315460492EF
:10199000DB07059324E0002D05D175460346039E21
:1019A0004D1BB34109D375466646039B491B049DF5
:1019B0009841059B7519AC465F4163463B4308D08F
:1019C000059B049EDD0776082E435B08049605936D
:1019D00001E0521E641EC50FED0749184041521C1C
:1019E000069B9A42D7DB002D04D17546039A6B1AE9
:1019F000824101D203200CE0039A0B466B40424027
:101A0000134303D0014303D0012002E0022000E091
:101A10000020614601910021009702910A99002956
:101A200005D0614640020143704B019102E08007FE
:101A3000002302909C4201DA012000E00020070010
:101A40003AD01A1BD006C00E15D0029D2021019C51
:101A5000091AC5408C402543029C8C4000D00124CB
:101A60002543019C0295009DC4408D4000992C4364
:101A70000194C140009154111DD06D4602210022F5
:101A800002290CD10320001B07E0002804DB86009C
:101A9000AE59002E00D00122401C0328F5DB081BA4
:101AA00002D588002A5004E08000285810438A009C
:101AB000A850491EE3D51C460A98002802980CD06D
:101AC000002800D001200199019A4905084301210D
:101AD000D20AC902D202019200E00121109B012228
:101AE000D207012B02D0002B03D013E0002807D12E
:101AF0001FE0904204D890420CD1019B0B4209D0C8
:101B0000019B5918019105D10099491C009101D1FF
:101B1000641C009200280CD0102108460020C0460A
:101B2000002F06D01198002803D008210846002075
:101B3000C04608980999019A009B006809684840C6
:101B4000C10F0798C907214382600AC00BB0F0BDDE
:101B500000B585B0019300920A460146002302A811
:101B6000FFF7FCFD02A807C805B000BDFFB50A4697
:101B70001F4685B00799019301230091014602A8F1
:101B8000FFF7ECFD02990398049ECA0F4900D207A3
:101B900000920F22490892028C1A0021002800DBD3
:101BA0000C46450013486D08844214D3079A002A56
:101BB00004DA441E0026104DF64302E004460D46AA
:101BC0000E46102108460020C046002F03D00421F5
:101BD00008460020C0462005E90A0843009908434A
:101BE0006905F20A1143ADE602C0FFFF013C0000A7
:101BF000FF3F0000FF070000FFFFFF7F00B585B03B
:101C0000019300920A460146002302A8FFF79CFEBA
:101C100002A807C8A8E7FFB50A461F4685B007997E
:101C2000019301230091014602A8FFF78DFE02995E
:101C30000398049ECA0F4900D20700920F22490858
:101C400092028C1A0021002800DB0C464500114846
:101C50006D08844214D3079A002A04DA441E002631
:101C60000D4DF64302E004460D460E46102108468F
:101C70000020C046002F03D0042108460020C046A3
:101C80002005E90A0843009908436905F20A11434F
:101C900058E60000FF070000FFFFFF7F10B5044675
:101CA000C046C0462046FEF7D3FA10BDC80212D582
:101CB0004803400F002804D0C803C04301218840D6
:101CC0007047EFF300800001000903210907084372
:101CD00080F30088704700207047000010B502486C
:101CE00000F008F810BD00000000C07F00487047F9
:101CF0001000002010B50C461107090F092904D067
:101D00000A290AD008290CD104E011460820FFF75F
:101D1000CDFF06E0510606D501E0510601D50120B0
:101D2000C007214610BDD10607D501010909CC081D
:101D30004907000E0006044309E0410F200249074D
:101D4000000A0143200E00061D22D141014308462E
:101D5000E7E7000001491820ABBEFEE726000200BD
:101D60007047000010B57C490868012253041843ED
:101D70000860654908685302184308600920C106D5
:101D800008680F23184308602D49086890430860CD
:101D9000114B18681824A0431860104B18681043A2
:101DA00018600868D20710430860FFE724480068FD
:101DB000C00F002801D0FFE7F8E721490868012299
:101DC00010430860FFE71F480068C007002801D1E2
:101DD000FFE7F8E710BDC0460C2401401424014081
:101DE00080B582B0014601A8017002780120014649
:101DF0009140124A116000F0B3F8114908680422BA
:101E000010430860FFE70F4800684007002801D42E
:101E1000FFE7F8E70C480068094908680422104306
:101E20000860FFE7074800684007002801D4FFE783
:101E3000F8E70548006880B202B080BD2824014060
:101E400008240140002401404024014080B584B0B2
:101E50004149086801220192D304184308602A49C5
:101E60000868104308603D49086812021043086082
:101E7000264A10680F21C94308401060244A1068A0
:101E80000840106011680520009001431160214A4C
:101E90001168FF23994311601168222319431160CF
:101EA0007F4B1A68032102910A431A601A4B1A6881
:101EB0000A431A60194B1A688A431A60774A1160FC
:101EC000022101F00BF9009801F0B4F81448006801
:101ED0007D21C900FEF738FA019B0299401E114A84
:101EE0001060114A32201060704A082010600F4ABA
:101EF0001068184310601320039001F0EFF8039866
:101F000001F098F804B080BD1810024000080048A5
:101F10000C080048080001400C040140080401407E
:101F200004000020282000402C2000400C2000400D
:101F3000D849086801225304184308600749086813
:101F40005207104308600920C106086803221202E4
:101F5000104308607047C046141002401C10024035
:101F600082B00190074800680090FFE705480068CC
:101F70000099401A0199884201D2FFE7F6E702B0C2
:101F80007047C0467C00002080B58CB00BA908705B
:101F900000F08EF8274881680A914168099100682D
:101FA000089007A9032088702348088006A900200C
:101FB0000870FFE706A80078022839DCFFE706A8CA
:101FC000027807A9895C05AA117000780BA9097825
:101FD00088421BD1FFE704A80190052101700599F3
:101FE000C900CA1C03A902910A7000780978821CF2
:101FF000CB1C00F057F9019802990278901C0B78DD
:10200000D91C921DDB1E00F04DF9FFE705A80178F1
:10201000102000F0ADF806A80078810008A840580C
:1020200000F0BEFBFFE70698401C06A90870C1E758
:102030000CB080BDA03A00080102000017480068FB
:10204000C007002811D0FFE714480122026014499C
:102050000868904308601348027013490020086024
:102060001249086810430860FFE70C4800688007C1
:10207000002812D5FFE7094902200860084A1168C4
:10208000814311600749087007490020086007492B
:102090000868012210430860FFE7704714040140FC
:1020A0000004014076000020242000400020004071
:1020B00080B584B002A900200870FFE702A800786C
:1020C00007281EDCFFE702A801780020019000F03D
:1020D0004FF8019803A90870FFE703A800787F284C
:1020E00009DCFFE7002000F00DFBFFE70398401C30
:1020F00003A90870F1E7FFE70298401C02A90870E5
:10210000DCE704B080BD81B000200090FFE70098BC
:10211000312806DCFFE700BFFFE70098401C009075
:10212000F5E701B07047000081B0014668460170D4
:102130000078002804D1FFE7E7494020086003E069
:10214000E54980200860FFE701B0704781B0014693
:10215000684601700078002804D1FFE7EE4940206E
:10216000086003E0EC4980200860FFE701B0704799
:1021700080B586B005AA107004A801700598B6490C
:10218000087004983A49087003A900200870FFE716
:1021900003A80078012819DCFFE703A80290017862
:1021A000402000F077FA029904A80078B822104382
:1021B000097800F06FFA02980178C02000F06AFAFE
:1021C000FFE70398401C03A90870E1E705A8019008
:1021D00001783F22084610404030890900F05AFA41
:1021E000019904A80078B82210430978890900F001
:1021F00051FA06B080BDC04680B582B000F03CF810
:1022000000F070F901A900200870FFE701A800782C
:10221000012826DCFFE701A8009001783E2000F0AD
:1022200039FA00980178C02000F034FA009801785B
:10223000402000F02FFA00980178B82000F02AFA28
:10224000009801783F2000F025FA0098007800F00F
:1022500007F908490870FFE70198401C01A90870B8
:10226000D4E77D49002008700149087002B080BDA4
:10227000A3000020A400002006490868032292045D
:102280001043086091490448086004490448086004
:102290007047C04614100240555500000008004821
:1022A0000050550080B58EB00D900C910B920A93A2
:1022B0000B980D99401A05900A980C99401A0490B1
:1022C0000598001803900498001802900D98099042
:1022D0000C980890012007900690059800280AD5D0
:1022E000FFE70020C04307900598404205900398FF
:1022F00040420390FFE7049800280AD5FFE700203A
:10230000C0430690049840420490029840420290D4
:10231000FFE70DA800780CA90978012200F000F968
:102320000598002804D1FFE70498002854D0FFE75F
:1023300004980599884227DCFFE700200190FFE719
:10234000079909984018099002990198401801903E
:1023500001980599884209DDFFE706990898401819
:10236000089003990198401A0190FFE709A80078A6
:1023700008A90978012200F0D3F8FFE709980B9922
:102380008842DDD1FFE726E000200090FFE70699B4
:1023900008984018089003990098401800900098F9
:1023A0000499884209DDFFE70799099840180990C8
:1023B00002990098401A0090FFE709A8007808A940
:1023C0000978012200F0ACF8FFE708980A998842E2
:1023D000DDD1FFE7FFE7FFE70EB080BD80B588B035
:1023E000E9480078800907A90870FFE707A8007886
:1023F00000F036F80006002801D5FFE7F6E7E449CB
:102400000868164A10400860012001900202E24963
:1024100002910A604002086007A804900078FFF764
:1024200095FE01980299800203900860FFF76BFE09
:1024300003990498294A126806AB05931A70D34A87
:1024400011600078FFF770FE0598CF4A1178491C9B
:102450001170007808B080BDA20000200000FFFFCE
:1024600010B588B0014607A80590017001229102BD
:102470000291C64B03931960110204911960520234
:102480001A60C34B00221A60114B124A1A60C24AEA
:10249000019211600078FFF759FE019A02980399A2
:1024A00000BF106000BF0860FFF72DFE039A04997B
:1024B00005980A4B1B680A4C06942370116000783B
:1024C000FFF732FE0698007808B010BD00040048FF
:1024D0000C040048AAAA000018080048100400488C
:1024E000A500002081B00120C002A849086000209A
:1024F0000090FFE700980949884206DCFFE700BF2B
:10250000FFE70098401C0090F4E70120C002A249B8
:10251000086001B07047C04628080048E703000083
:1025200080B588B00B46014607A80290017006A945
:1025300001910B7005AB03931A7000780978C908F4
:10254000FFF716FEFFF74AFF01990246029804AB17
:1025500000931A7000780978C908FFF709FEFFF7A1
:102560003DFF009B0199024602981A700078097895
:10257000C908FFF7FDFD0398007800280BD0FFE79E
:1025800006A80078072108400121814004980843EB
:1025900004A908700AE006A8007807210840012174
:1025A00081400498884304A90870FFE704A80078D4
:1025B00000F0A8F808B080BD80B5FFF779FD0A20CB
:1025C0000321FFF7D5FD024800F0EAF880BDC046C0
:1025D000A53C000880B584B0014603A801700078CE
:1025E00020280DDBFFE703A800787F2808DCFFE741
:1025F00003A8017805204843A03801A9088028E0F5
:1026000003A8007880280DDBFFE703A80078BF2827
:1026100008DCFFE703A8017805204843A03801A99A
:10262000088015E002A900200870FFE702A80078E2
:10263000042809DCFFE7002000F064F8FFE70298B7
:10264000401C02A90870F1E7002000F05BF81CE0D4
:10265000FFE702A900200870FFE702A8007804281D
:102660000FDCFFE701A8008802A909784118084893
:10267000405C00F047F8FFE70298401C02A9087090
:10268000EBE7002000F03EF8FFE704B080BDC04655
:10269000AC3A0008B0B586B005AA107004A8017065
:1026A000FFE704A80078FFF7DBFE0006002803D54B
:1026B000FFE7FFF728FDF4E7012082020292334989
:1026C00001910A60324B334A1A6002020A604002EA
:1026D000086004A803900078FFF738FD019A02997A
:1026E00003982E4C2368FF25AB4305AD2D785B196D
:1026F0002360294B196000BF11600078FFF714FDBB
:1027000006B0B0BD70B586B005A908701E48007847
:10271000800904A90870FFE704A80078FFF7A0FE6D
:102720000006002803D5FFE7FFF7EDFCF4E70120E2
:1027300081020291154A01921160154B15491960E9
:1027400001021160400214490091086004A803903E
:102750000078FFF7FBFC009B019A029903980F4D4C
:102760002C68FF26B44305AE3678A4192C60196096
:1027700000BF11600078FFF7D7FC03490878401CC0
:10278000087006B070BDC046A200002028080048AE
:10279000000400485555000018080048140400487B
:1027A00080B582B00190FFE701980078002807D03B
:1027B000FFE70198411C01910078FFF70BFFF3E759
:1027C00002B080BD80B590B0B84801230370B8490D
:1027D00000200880B7490880B74A11681943116082
:1027E000B6490988B64A11600621FFF7C1FCB54811
:1027F000FFF7D6FFB44800F0AFFB7D20C000FFF725
:10280000AFFBFFE7022000F0ABFC002801D0FFE7A0
:102810004AE10020FFF7E4FA0FA908800120FFF742
:10282000DFFA01460EA801800088002801D1FFE7E9
:10283000E8E70FA80088FDF747FF04900EA800887E
:10284000FDF73AFF01460498FDF762FE0D900D98E2
:102850009E4900F0DFFE002808D1FFE70D989C4953
:1028600000F0C0FE002801D1FFE716E0002006219D
:10287000FFF77EFC0D98964900F0BFFE002804D1BA
:10288000FFE79548FFF78CFF03E09248FFF788FFCA
:10289000FFE7C820FFF764FBB4E70CA9002008702D
:1028A000FFE7022000F05CFC002801D0FFE7FBE01E
:1028B0000020FFF795FA0BA9039108800120FFF78C
:1028C0008FFA014603980AAA11800088784909887E
:1028D000884217DDFFE70AA8008876490988884200
:1028E00010DDFFE70B98724908800A98714908804B
:1028F0000CA9002008700621FFF73AFC7848FFF782
:102900004FFF27E06A4800880B99401A09A9088000
:10291000684800880A99401A08A908800CA800781D
:10292000C007002815D1FFE709A80088892805DC21
:10293000FFE708A800888A280BDBFFE70CA9012025
:10294000087000200621FFF713FC6448FFF728FFFA
:10295000FFE7FFE70CA80078C00700280BD0FFE7CF
:1029600000200621FFF704FC5E48FFF719FF5E48D0
:1029700000F0F2FA03E0C820FFF7F2FA91E7002036
:1029800002900621FFF7F4FB5848FFF709FF58486B
:10299000FFF706FF029807A90870FFE7022000F082
:1029A000DFFB002801D0FFE77EE044480088924921
:1029B00008600520FFF7D4FA0020FFF711FA01465E
:1029C00006A801800088FDF777FE8C49FDF7A0FD81
:1029D0008B4900F0F7FE05900598464900F01AFE75
:1029E000002815D1FFE70598434900F0FBFD0028BA
:1029F0000ED1FFE700200621FFF7BAFB4048FFF7A2
:102A0000CFFE404800F0A8FA07A90120087021E095
:102A10000598394900F0F1FD00280BD1FFE7274860
:102A20000088002801D1FFE714E024490888401EEF
:102A300008800BE0214800883049884201DBFFE72D
:102A400008E01E490888401C0880FFE70A20FFF7BD
:102A500087FAA3E707A80078C00700280AD0FFE795
:102A600016480190008800F027F901980088614914
:102A70000880FFE707A80078C00700280BD1FFE710
:102A800000200621FFF774FB1F48FFF789FE1F484F
:102A900000F062FAFFE75649086801229043086097
:102AA000554900200860FFE710B080BD700000208D
:102AB000720000207400002000740040000000201C
:102AC00008740040C33D0008033D00083333733FE2
:102AD0006666863F9B3D0008863D0008763D0008FF
:102AE0003A3D00084E3D0008193D0008253D00080C
:102AF000613D00089A99194066662640FF0F000064
:102B0000B03D0008DA3C0008E73D0008EE3C000854
:102B100080B500F001F880BD10B59CB03449059136
:102B20000868012420430860324800883249069131
:102B300008600A20FFF714FA00200790FFF750F909
:102B40000EA9009108802046FFF74AF90146009837
:102B50000DAA019211800088FDF7AEFD2749029170
:102B6000FDF7D6FC2649039100F02CFE254904917F
:102B700000F028FE014601980C910088FDF79CFDAD
:102B80000299FDF7C5FC039900F01CFE049900F0C2
:102B900019FE059B0699024607980B921A68A243F4
:102BA0001A6008600B990C9800F0FCFA0A900A98D9
:102BB000FDF784FC02460B4613490FA80990FDF768
:102BC00069FB099800F0C8F9104800F0C5F90798AA
:102BD00006210891FFF7CCFA0D48FFF7E1FD0798B1
:102BE0000899FFF7C5FA0998FFF7DAFD1CB010BD88
:102BF00000740040780000200874004000F07F4519
:102C00000000404000007A44D73D0008223D000803
:102C1000293D000880B5FFF77FFF80BD80B582B0F9
:102C2000FFF7CAFC0920C1060020C04308600F4915
:102C3000086002200190FFE701980F280DDCFFE7F4
:102C400001984000032282400A4908681043086046
:102C5000FFE70198401C0190EEE70549086804224F
:102C60009043086030BF02B080BDC04600040048F9
:102C700010ED00E00008004882B035480188684641
:102C8000018000880B49884207D0FFE7684600882A
:102C900001210903884204DBFFE701A90120088024
:102CA00003E0009801A90880FFE701A8008802B0AE
:102CB0007047C046FFFF000081B0694608801F488A
:102CC00000680006002806D5FFE71D491D4808607A
:102CD0001D480860FFE71949086802221043086090
:102CE0001A4A1B4810600868402210430860FFE73A
:102CF00018480068C007002801D0FFE7F8E70F492F
:102D000008680222904308600868012210430860A6
:102D100000980F490880FFE70E480068C0070028A8
:102D200001D0FFE7F8E705490868012290430860F1
:102D3000086880221043086001B0704710200240EC
:102D40000420024023016745AB89EFCD14200240E7
:102D500000FC01080C20024080B584B0029002986B
:102D6000401E000E002803D0FFE70120039011E071
:102D70000298401E0949086000200190C0430321C9
:102D800000F06EF9019806490860064A07211160B3
:102D90000390FFE7039804B080BDC04614E000E054
:102DA00018E000E010E000E080B503490868401C2E
:102DB000086000F06BF880BD7C00002070470000C8
:102DC00020480068C00700283AD0FFE71D4908687E
:102DD0000122D243104008601B4908681040086077
:102DE0001A480068C007002812D1FFE71848007889
:102DF00001280DD1FFE7E8480178491C01700078EF
:102E0000032804DBFFE7E44900200870FFE7FFE741
:102E10000E4800688007002809D4FFE70C480078B6
:102E2000022804D1FFE70B4901200870FFE70A4997
:102E30000868032210430860054900200870FFE776
:102E40007047C04610200040002000401008004895
:102E5000760000207A000020000401401149002083
:102E60000860704782B00F4801680F4A01200023B4
:102E700000939142019001D800980190019802B00E
:102E80007047C04607490020086070470548006841
:102E90000549884205D8FFE702490868401C0860D8
:102EA000FFE77047A8000020BFD4010080B51A4991
:102EB00008680122530418430860184908689303FE
:102EC000184308600920C10608680F239B04984333
:102ED000086008680523DB04184308601049086887
:102EE000FF231B0198430860086811231B01184346
:102EF00008600C490C4808600C4908680C2318430A
:102F000008600868202318430860086810430860B8
:102F10001B2000F07BF880BD141002401810024006
:102F2000240000480C3801404103000000380140F3
:102F300081B069460870FFE72F4800680006002846
:102F400001D4FFE7F8E7684600780249088001B03D
:102F50007047C0462838014080B582B00190FFE735
:102F600001980078002807D0FFE70198411C0191E3
:102F70000078FFF7DDFFF3E702B080BD80B582B0D7
:102F80001D4800688006002833D5FFE71B480188EC
:102F900001A8017000780D2805D0FFE701A800788E
:102FA0000A2813D1FFE716480278164800218154F9
:102FB0001549FDF785F9002804D1FFE7764902207D
:102FC0000870FFE70E490020087011E00C480078F7
:102FD0001E2808DCFFE70198094B1A78511C19706C
:102FE0000849885403E0064900200870FFE7FFE71E
:102FF000FFE702B080BDC0461C38014024380140C4
:10300000A1000020810000208C3C000881B0014616
:103010006846017000214056002809D4FFE7684641
:1030200001781F200140012088400C490860FFE71B
:1030300001B0704781B001466846017000214056DA
:10304000002809D4FFE7684601781F2001400120CD
:10305000884002490860FFE701B0704700E100E0E6
:1030600070B582B0024601A802700091002140565E
:10307000002816D4FFE7002401A908570322D343F0
:103080001840364A805809578C07E50EFF24AC409B
:10309000A043009CA401E4B2AC40204319408850F6
:1030A0001AE001A908780F24204008380322D343EE
:1030B0001840294A8058002549578D07EE0EFF25F4
:1030C000B540A843009DAD01EDB2B5402843214075
:1030D000083919408850FFE702B070BD70B582B062
:1030E000024601A80270009100214056002816D423
:1030F000FFE7002401A908570322D3431840174AC9
:10310000805809578C07E50EFF24AC40A043009C73
:10311000A401E4B2AC402043194088501AE001A950
:1031200008780F24204008380322D34318400A4A65
:103130008058002549578D07EE0EFF25B540A8435E
:10314000009DAD01EDB2B54028432140083919403A
:103150008850FFE702B070BD1CED00E000E400E025
:1031600082B0694608700C480078097888420BD014
:10317000FFE70A4A1168012081431160084A0021D3
:10318000116001A9087003E001A900200870FFE7A1
:1031900001A8007802B07047800000200074004051
:1031A0000874004080B59AB019901891199817903A
:1031B0001898169017981290A44900F003FBA449A0
:1031C00000F066FA019016981490A24900F0FAFAFD
:1031D000019900F05DFA0146129802919E4900F0B3
:1031E000F1FA129900F0EEFA029900F051FA014654
:1031F00012980391994900F0E5FA149900F0E2FA67
:10320000039900F045FA014614980491944900F09E
:10321000D9FA149900F0D6FA049900F039FA014667
:10322000129805918F4900F0CDFA129900F0CAFA70
:10323000129900F0C7FA059900F02AFA014612988F
:103240000691894900F0BEFA129900F0BBFA149970
:1032500000F0B8FA069900F01BFA0146129807919F
:10326000824900F0AFFA149900F0ACFA149900F01A
:10327000A9FA079900F00CFA0146149808917C49C4
:1032800000F0A0FA149900F09DFA149900F09AFA4F
:10329000089900F0FDF9014612980991754900F06E
:1032A00091FA129900F08EFA129900F08BFA1299A5
:1032B00000F088FA099900F0EBF9014612980A919A
:1032C0006D4900F07FFA129900F07CFA129900F033
:1032D00079FA149900F076FA0A9900F0D9F90146C2
:1032E00012980B91654900F06DFA129900F06AFA94
:1032F000149900F067FA149900F064FA0B9900F041
:10330000C7F9014612980C915D4900F05BFA1499D7
:1033100000F058FA149900F055FA149900F052FA96
:103320000C9900F0B5F9014614980D91554900F03B
:1033300049FA149900F046FA149900F043FA1499E6
:1033400000F040FA0D9900F0A3F9014612980E9191
:103350004D4900F037FA129900F034FA129900F052
:1033600031FA129900F02EFA129900F02BFA0E9908
:1033700000F08EF9014612980F91444900F022FAAC
:10338000129900F01FFA129900F01CFA129900F03D
:1033900019FA149900F016FA0F9900F079F901461C
:1033A000129810913A4900F00DFA129900F00AFAB9
:1033B000129900F007FA149900F004FA149900F039
:1033C00001FA109900F064F90146129811913149FF
:1033D00000F0F8F9129900F0F5F9149900F0F2F9FB
:1033E000149900F0EFF9149900F0ECF9119900F03C
:1033F0004FF9014612981391274900F0E3F9149907
:1034000000F0E0F9149900F0DDF9149900F0DAF910
:10341000149900F0D7F9139900F03AF9014614987D
:1034200015911E4900F0CEF9149900F0CBF91499CA
:1034300000F0C8F9149900F0C5F9149900F0C2F928
:10344000159900F025F91AB080BDC046305F78AA02
:10345000D7842FC07043932A707566AF3C98A2AE94
:103460003F8BA02FD9E01EB3BA25CE31BC7A90B3E2
:103470009308A833C787AA2EA74F5EAEE1F038AFF6
:10348000FA6BA32F0C031CAF5BC8A5A9E7E3A92A1D
:1034900074811EAB9C55222B9EBBB6AAF2E9B429BF
:1034A00080B582B000200190FFF788FCFEF7CEFCCB
:1034B000FEF7A2FEFEF7FCFD2E4800687D21C90044
:1034C000FCF742FFFFF748FCFFF7C8FCFFF7EEFCF4
:1034D000FEF748FCFEF72CFDFFF7CEFB26490880DF
:1034E000FFE7264800782649097888420AD0FFE796
:1034F00022480178224A11700078FEF745FDFFF757
:10350000C1FCFFE71D480078002803D1FFE7FFF763
:10351000FFFAFFE71948007801280ED1FFE71948A4
:103520000078C007002808D0FFE71649002008707F
:10353000FFF7A8FCFFF76EFBFFE7104800780228B2
:103540000ED1FFE70F480078C007002808D0FFE73A
:103550000C4900200870FFF795FCFFF733F9FFE7EF
:10356000FFF780FC002803D0FFE7FFF757FBFFE7DA
:10357000B7E7C0460400002078000020800000204B
:10358000080000207A000020F8B5040C8BB2264613
:1035900082B25E43104658430D0C370C36040021AE
:1035A0008019164679416E43370C36048019264639
:1035B00079416E438919F8BD4900CA0202431000DF
:1035C00000D004204A0D01D001221043044A490DC5
:1035D000914201D102210843012800D10520704702
:1035E000FF07000010B500F099F8EFF300804000ED
:1035F000800F012800D0002010BD10B500F0B8F8F1
:10360000EFF300804000800F012801D0012010BDA1
:10361000002010BD10B500F0ABF8EFF30080800083
:1036200001D4012010BD002010BD30380A2801D27D
:10363000012070470020704710B500290AD0087893
:10364000002807D005487844FCF73AFE002801D04E
:10365000002010BD0248784410BD0000D2070000D1
:10366000CA07000010B500290AD00878002807D042
:1036700005487844FCF724FE002801D0002010BD46
:103680000248784410BD0000C2070000BA070000DD
:1036900070B50125ED0704004C4020D4441A01D236
:1036A000001B0919C60D4B00F2B2FF2A29D01B0ED0
:1036B0002CD000020C0228432C43D31ADC400519FD
:1036C00010D2280A02D3401C6D0611D0761EF605D2
:1036D0008019FF2A00DA70BDC00DC00570BD6940B9
:1036E00000F0CEF801200543C541521C761CE8E7E6
:1036F00064089C40C90161408900E7D10124A043CE
:10370000E4E71B0E440200D0034870BD002AFCD140
:10371000C00FC00770BD00BF0000C07F0123DB05E4
:1037200002000A430DD4DA4203D49A4207D48842F5
:103730007047D84214D4D94212D48842704780428C
:103740007047DA4203D59A42F9D5814270475B004F
:103750004200DA4204D24A00DA4201D28142704782
:1037600010B5024AFDF7CCFE10BD00BF09001304DE
:103770000123DB0502000A430DD4DA4203D49A4246
:1037800007D488427047D84214D4D94212D4884210
:10379000704780427047DA4203D59A42F9D5814298
:1037A00070475B004200DA4204D24A00DA4201D29A
:1037B0008142704710B5024AFDF7A2FE10BD00BF5E
:1037C0000900160470B5420064414B005C41120EC2
:1037D00039D01B0E38D0FF2A3CD0FF2B3AD0D2185C
:1037E0007F3A40024902400A490A4518ED010600A5
:1037F0004E43000A090A48430104731A4019190C80
:103800004318990F04D05B08012149075B1A521C29
:10381000D80904D3401CF50301D19D0607D0FF2A27
:1038200008D2D50506D0E4072043401970BD012514
:10383000A843F4E7002A01DCE00770BD2402FF2062
:103840002043C00570BD1B0EFF2A03D0FF2B01D003
:10385000E00770BDFF2636064500B54206D84D008C
:10386000B54203D8D218FF2A00D0E7E7004870BD60
:103870000000C07F70B50125ED0704004C4022D444
:10388000441A02D26C40001B0919C60D4B00F2B25B
:10389000FF2A4BD01B0E50D000020C02A8432C4331
:1038A000D31ADC40051B05D5AD0019D36D08761E73
:1038B000521E37D0F605280A01D2801970BD70411A
:1038C0006D0603D070BD6940FFF7E8FE9C40090219
:1038D0006140490001D0401E70BD0124A04370BD6D
:1038E0006D081DD001202B0C01D12D0410302B0EA2
:1038F00001D12D0208302B0F01D12D01001DAB0F7E
:1039000001D1AD00801CEB0F01D16D00401C361AB7
:10391000121A6D00680AF5054019012A02DB70BD14
:10392000002070BDC036300AC00770BD1B0E4402B7
:1039300001D1FF2B00D1024870BD002AF0D070BD2C
:103940000000C07F03B402487844844603BC60474B
:103950009DD5FFFF03B402487844844603BC60470A
:1039600005D8FFFF8182838485868788898B8C8D2B
:103970008E8F919293959697999A9C9D9FA0A2A3C2
:10398000A5A7A8AAACAEB0B2B3B5B7B9BCBEC0C209
:10399000C5C7C9CCCED1D4D7D9DCDFE2E6E9ECF09B
:1039A000F3F7FAFE0000000000000000303132336F
:1039B0003435363738394142434445464030580063
:1039C0003031323334353637383961626364656695
:1039D00040307800040000080000000000000002F1
:1039E0000001000010303132333435363738396158
:1039F000626364656678700030313233343536374F
:103A000038394142434445465850000002400000C6
:103A1000000000A00000000005400000000000C8F9
:103A2000000000000C4000000000409C000000006E
:103A3000194000000020BCBE00000000344000001F
:103A4000BFC91B8E00000004B5400000504BCFD012
:103A50006607E2CF010000006C4100003E8251AADF
:103A6000DFEEA73401000000D9420000DCB5A0E27F
:103A70003A301F97FFFFFFFFB4450000FD25A0C8A7
:103A8000E9A3C14FFFFFFFFFFF3F000000000080E0
:103A900000000000FF3F0000000000800000000068
:103AA000C93C0008983C0008B73C00080000000032
:103AB0000000005F00000007000700147F147F145F
:103AC000242A7F2A122313086462364955225000A3
:103AD00005030000001C2241000041221C00082AAE
:103AE0001C2A0808083E0808005030000008080892
:103AF0000808003030000020100804023E514945FB
:103B00003E00427F400042615149462141454B31D0
:103B10001814127F1027454545393C4A4949300160
:103B2000710905033649494936064949291E0036B7
:103B30003600000056360000000814224114141408
:103B40001414412214080002015109063249794136
:103B50003E7E1111117E7F494949363E4141412245
:103B60007F4141221C7F494949417F090901013EAA
:103B7000414151327F0808087F00417F41002040C9
:103B8000413F017F081422417F404040407F0204B2
:103B9000027F7F0408107F3E4141413E7F090909B1
:103BA000063E4151215E7F0919294646494949315E
:103BB00001017F01013F4040403F1F2040201F7F07
:103BC0002018207F631408146303047804036151F0
:103BD00049454300007F4141020408102041417FD4
:103BE0000000040201020440404040400001020481
:103BF0000020545454787F48444438384444442086
:103C0000384444487F3854545418087E0901020847
:103C10001454543C7F0804047800447D4000204044
:103C2000443D00007F10284400417F40007C041880
:103C300004787C0804047838444444387C14141410
:103C400008081414187C7C080404084854545420B0
:103C5000043F4440203C4040207C1C2040201C3C31
:103C60004030403C44281028440C5050503C4464A0
:103C7000544C44000836410000007F0000004136EB
:103C8000080008082A1C08081C2A080843616C69F7
:103C900062726174696F6E006D6F64653A2073695A
:103CA0006E676C6500446576696365207475726E35
:103CB0006564206F6666006D6F64653A2063616CB1
:103CC0006962726174696F6E006D6F64653A20633A
:103CD0006F6E74696E756F75730043616C696272A3
:103CE0006174696F6E20656E6465640D0A004361DE
:103CF0006C6962726174696F6E206661696C65647B
:103D00000D0A0043616C6962726174696F6E2073A1
:103D10007461727465640D0A004D617820666F7578
:103D20006E640D0A0020202020202020202020204A
:103D300020202020202020202000476F206C6F773B
:103D400065722020202020202020202020004D618E
:103D50007820666F756E642020202020202020208F
:103D600000496E2070726F67726573732020202087
:103D7000202020202000476F206869676865722036
:103D800020202020200054696C743A20436C6F631B
:103D90006B7769736520202020200054696C743A89
:103DA00020416E74692D436C6F636B2020202000CE
:103DB00043616C6962726174696F6E20646F6E65D5
:103DC00020200043616C6962726174696F6E2073B8
:103DD00074617274656400416E676C653A20252ECB
:103DE0003266206465670043616C69627261746960
:103DF0006F6E206661696C00483F0008000000207B
:103E00001000000000010008583F000810000020CA
:103E1000A00600001C0100081C0000004300000078
:103E2000F8FFFFFF0C0000000E0000000F00000074
:103E30002E0000001001000043000000F8FFFFFF0B
:103E400000404040404040404040414141414140AD
:103E50004040404040404040404040404040404062
:103E600040050202020202020202020202020202F1
:103E700002202020202020202020200202020202F6
:103E8000020290909090909010101010101010104E
:103E9000101010101010101010101010020202025A
:103EA000020288888888888808080808080808089E
:103EB000080808080808080808080808020202029A
:103EC00040000000000000000000000000000000B2
:103ED00000000000000000000000000000000000E2
:103EE00000000000000000000000000000000000D2
:103EF00000000000000000000000000000000000C2
:103F000000000000000000000000000000000000B1
:103F100000000000000000000000000000000000A1
:103F20000000000000000000000000000000000091
:103F30000000000000000000000000000000000081
:103F400000000000000000004507000000127A0099
:083F5000FF000000000000006A
:04000005080000BD32
:00000001FF
